S01000007072756562615F312E7372656305
S11300005BC100008AC1000088C1000086C10000F5
S113001084C1000082C1000080C100007EC10000D4
S11300207CC100007AC1000078C1000076C10000E4
S113003074C1000072C1000070C100006EC10000F4
S11300406CC100000C947C0968C1000066C100000A
S113005064C1000062C1000060C100000C948015FE
S11300605CC100000C94C80858C1000056C10000CF
S113007054C1000052C1000050C100004EC1000034
S11300804CC100004AC1000048C1000046C1000044
S11300900C94F50842C1000040C100000C94400DCE
S11300A03CC100003AC1000038C1000036C1000064
S11300B034C1000032C1000030C100002EC1000074
S11300C02CC100002AC1000028C100000C942209A0
S11300D024C1000022C100000C944F091EC100007D
S11300E01CC100002E02400244025B026502790238
S11300F081029502084AD73B3BCE016E84BCBFFD0A
S1130100C12F3D6C74319ABD56833DDA3D00C77FE3
S113011011BED9E4BB4C3E916BAAAABE000000807C
S11301203F07634236B79BD8A71A39685618AEBA48
S1130130AB558C1D3CB7CC5763BD6DEDFD753EF6DC
S1130140177231BF000000803F08000000BE9224F7
S113015049123EABAAAA2ABECDCCCC4C3E0000002C
S113016080BEABAAAAAA3E00000000BF0000008027
S11301703F0000000000084178D3BB4387D1133D02
S1130180190E3CC3BD4282AD2B3E68EC8276BED9CB
S11301908FE1A93E4C80EFFFBE01C4FF7F3F00000A
S11301A000000000B016B316A216A616AC16EA1686
S11301B0B716BB16C116C516C916CF16D316D71651
S11301C0EA16DD16E116E51600000A0B02090C0D0D
S11301D00E080703040100000000000000000000F6
S11301E0000000000000000000000000000000000B
S11301F000000000121110000000000000000000C8
S113020000000000000000000000000000000102E7
S11302101020200808102040102040800201020114
S113022008040201010204081020408080402010CC
S11302300804020180040201804020100804020125
S1130240080402010102040810204080010204088D
S11302501020408005050505070508080808020266
S113026002020A0A0808040404040101010101014C
S113027001010303030303030303040707070C0C2F
S11302800C0C0C0C0C0C02020202060606060606F6
S113029006060B0B0B0B0B0B0B0B000022002500AF
S11302A028002B002E00310034000201000005015B
S11302B008010B01A509CE0F11241FBECFEFD1E217
S11302C0DEBFCDBF00E00CBF13E0A0E0B2E0E0ED84
S11302D0F0E300E00BBF02C007900D92A230B1071B
S11302E0D9F724E1A2E0B3E001C01D92AB3DB2070F
S11302F0E1F711E0CCE5D1E000E006C02197010967
S1130300802FFE010E942E17CA35D10780E008070E
S1130310A9F70E9472150C94661872CECF93DF93DE
S1130320D62FC42F682F88E794E10E944C0F6D2FBD
S113033088E794E10E94FF0E6C2F88E794E10E9405
S1130340FF0E88E794E1DF91CF910C94CC0F482FF6
S113035060E08EE1E3CFCF93DF93C82FD62F682FD1
S113036088E794E10E944C0F6D2F88E794E10E9486
S1130370FF0E88E794E10E94CC0F6C2F70E041E0FF
S113038050E088E794E10E94CA0F88E794E10E9454
S1130390790EDF91CF910895CF93C82F6CE08EE151
S11303A0DADF8F7C482F4C2B60E18EE1CF91B6CF02
S11303B0CF93DF93C82FD62F84E0C9DF8D2FC7DFFB
S11303C08C2FDF91CF91E8CFCF936CE08EE1C3DF28
S11303D0C82F6DE08EE1BFDF90E0982F88278C0F47
S11303E0911DCF910895CF93C82FEEDFBC0180E01B
S11303F090E0C03161F0C8F0C03281F0C033A9F49C
S11304000E94F0122EE230E940EA5BE314C00E943D
S1130410F01225EE31E641EA5DE30DC00E94F012D0
S113042025EE31E641EA5CE306C00E94F01223E3C4
S113043033E343EB5EE30E94D213CF910895DC01D2
S1130440D596ED91FC91D697E830F10508F07FC080
S11304508827EE58FF4F8F4F0C942E17643209F003
S113046076C0D2961C921E92D197D0961C921E9260
S11304709F97D4961C921E92D39781E090E063C01C
S11304806C3209F064C014C06C3219F483E090E05B
S11304905AC0D3968D919C91D4979C012F5F3F4F66
S11304A0D4963C932E93D397FD01E80FF91F668FE2
S11304B082E090E048C06C32C9F0613409F447C06E
S11304C0D6961C921E92D59742C06C32B9F0D19642
S11304D08D919C91D2979C012F5F3F4FD2963C9374
S11304E02E93D197FD01E80FF91F678784E090E010
S11304F02AC06C32B9F09D966C939D9785E090E08C
S113050022C06C32F1F09F968D919C91D0979C0102
S11305102F5F3F4FD0963C932E939F97FD01E80F9A
S1130520F91F608386E090E00EC06C3239F4D696F1
S11305301C921E92D59781E090E008959E966C934C
S11305409E9787E090E0D6969C938E93D59780E013
S113055090E008952F923F924F925F926F927F9214
S11305608F929F92AF92BF92CF92DF92EF92FF92BF
S11305700F931F93CF93DF9300D0CDB7DEB79B8348
S11305808A836B014983FC01808190E0C09724E653
S1130590289F1001299F300C1124818190E0C0977D
S11305A04AE0489F9001499F300D1124220E331ECA
S11305B0828190E0C097280E391E838190E0C09715
S11305C0489F9001499F300D11248481682F70E069
S11305D060537109620F731F072E000C880B990B6F
S11305E00E94F2124B015C010A811B810A5F1F4FBA
S11305F0EE24E394F12C8A819B818C0D9D1D9B83B9
S11306008A836801EA81FB810E171F0770F50F5F6B
S11306101F4FB7010F2C000C880B990B0E94F2128C
S11306209B01AC0160E070E080E291E40E9435142B
S11306302B013C01F601608170E060537109072EC3
S1130640000C880B990B0E94F212A30192010E94E4
S11306505C129B01AC01C501B4010E9492114B01D3
S11306605C01FFEFEF1AFF0ACCCFB101330C880B0A
S1130670990B0E94F2126B017C0120E030E040E70C
S113068052E4C501B4010E945C129B01AC01C70194
S1130690B6010E9492112981273509F490580F90D0
S11306A00F900F90DF91CF911F910F91FF90EF90DA
S11306B0DF90CF90BF90AF909F908F907F906F907E
S11306C05F904F903F902F9008952F923F924F92BA
S11306D05F926F927F928F929F92AF92BF92CF92CE
S11306E0DF92EF92FF920F931F93CF93DF9300D08B
S11306F0CDB7DEB79B838A836B014983FC0180817C
S113070090E0C0972AE0289FB001299F700D112422
S11307108181282E312CF0E32F1A3108260E371E42
S1130720EA81FB81828190E0C097289FA001299FE4
S1130730500D11248381682F70E060537109640F98
S1130740751F072E000C880B990B0E94F2124B01A7
S11307505C010A811B810B5F1F4FEE24E394F12C93
S11307608A819B818C0D9D1D9B838A836801EA810C
S1130770FB810E171F0770F50F5F1F4FB7010F2C7A
S1130780000C880B990B0E94F2129B01AC0160E0F3
S113079070E080E291E40E9435142B013C01F601E3
S11307A0608170E060537109072E000C880B990B6F
S11307B00E94F212A30192010E945C129B01AC01FF
S11307C0C501B4010E9492114B015C01FFEFEF1AC5
S11307D0FF0ACCCFB101330C880B990B0E94F212A3
S11307E06B017C0120E030E040E752E4C501B40134
S11307F00E945C129B01AC01C701B6010E949211D8
S11308002981233509F490580F900F900F90DF91B0
S1130810CF911F910F91FF90EF90DF90CF90BF90F9
S1130820AF909F908F907F906F905F904F903F908C
S11308302F900895EF92FF920F931F93CF93DF931E
S1130840CDB7DEB7C55DD1090FB6F894DEBF0FBED4
S1130850CDBF8C017B018AE1E6E0F2E0DE01AA551E
S1130860BF4F01900D928A95E1F78AE1E0E2F2E050
S1130870DE01A457BF4F01900D928A95E1F78AE1FA
S1130880EAE3F2E0DE01AE58BF4F01900D928A9583
S1130890E1F78AE1E4E5F2E0DE01A85ABF4F0190F6
S11308A00D928A95E1F78AE1EEE6F2E0DE01DE964A
S11308B001900D928A95E1F78DE3E8E8F2E0DE011C
S11308C0119601900D928A95E1F786E1E5ECF2E04C
S11308D0DE01A054BF4F01900D928A95E1F7A80163
S11308E06DE370E0CE0101960E9476112FEF81EE48
S11308F094E0215080409040E1F700C0000080E186
S113090090E0F7011995A8016AE170E0CE018A55DB
S11309109F4F0E947611A8016AE170E0CE018457CE
S11309209F4F0E947611A8016AE170E0CE018E58B3
S11309309F4F0E947611A8016AE170E0CE01885AA7
S11309409F4F0E947611A8016AE170E0CE01CE9615
S11309500E947611A80166E170E0CE0180549F4F99
S11309600E947611CB52DF4F0FB6F894DEBF0FBE54
S1130970CDBFDF91CF911F910F91FF90EF9008951C
S1130980FB01480F591F8417950728F4DC012D91AA
S1130990CD012193F8CF08950895A1ECB0E02C91F6
S11309A01C92E2ECF0E0208110829093C5008093C9
S11309B0C4008C9188698C93808186608083E0EC8C
S11309C0F0E080818260808308959091C00095FF5B
S11309D0FCCF8093C6000895A9ECB0E02C911C9242
S11309E0EAECF0E0208110829093CD008093CC005B
S11309F08C9188698C93808186608083E8ECF0E038
S1130A0080818260808308959091C80095FFFCCF17
S1130A108093CE000895A1EDB0E02C911C92E2EDFC
S1130A20F0E0208110829093D5008093D4008C91C3
S1130A3088698C93808186608083E0EDF0E080811A
S1130A408260808308959091D00095FFFCCF8093BD
S1130A50D6000895A1E3B1E02C911C92E2E3F1E009
S1130A602081108290933501809334018C918869A0
S1130A708C93808186608083E0E3F1E080818260F2
S1130A80808308959091300195FFFCCF80933601C7
S1130A9008951092800010928100109285001092A7
S1130AA084009093890080938800809181008860FD
S1130AB08093810060347105D1F054F46130710584
S1130AC091F068307105E1F480918100826016C074
S1130AD0611581E0780779F06115744089F480919B
S1130AE0810085600BC080918100816007C0809186
S1130AF08100836003C080918100846080938100C1
S1130B0080916F00826080936F00089520E130E04F
S1130B104DEC54E066EF7FE080E094E10E94F70F33
S1130B202FEC30E04CEE54E06EE07CE086EF93E195
S1130B300E94F70F2FEC30E04BE055E066E278E0DE
S1130B408CEE93E10E94F70F2FEC30E04AE255E07F
S1130B506EE374E082EE93E10E94F70F88E794E17C
S1130B600E943D0F10920C0361E080E021DC6CE0F8
S1130B7081E493E0E2D4811101C0FFCF2FEF83ED34
S1130B8090E3215080409040E1F700C0000061E014
S1130B9081E493E07CD46CEE74E084E095E04ADE7A
S1130BA06BE075E083E295E045DE6AE275E082E49D
S1130BB095E040DE60E470E081EE94E06ADF6FE08F
S1130BC070E082E093E00E94D10F10923D041092F5
S1130BD03C0410920604109205041092CF03109264
S1130BE0CE030895CF92DF92EF92FF92CF93DF93DB
S1130BF0CDB7DEB72C970FB6F894DEBF0FBECDBFCE
S1130C0086EF93E10E943210892B09F449C086EFE4
S1130C1093E10E94361080939803682F87E094E054
S1130C200EDC9093970380939603892BC9F160910E
S1130C303804709139044091340486E194E045DD30
S1130C4060938E0370938F0380939003909391032A
S1130C5060913604709137044091350487E094E044
S1130C6079DC60939203709393038093940390933D
S1130C70950340913A0450913B0462E873E085E2A5
S1130C8094E07EDE80913A0490913B0490938D032E
S1130C9080938C0381E090E09093530380935203FC
S1130CA08CEE93E10E943210892B09F449C08CEE3A
S1130CB093E10E94361080938103682F80ED93E0C6
S1130CC0BEDB9093800380937F03892BC9F16091ED
S1130CD00104709102044091FD038FED93E0F5DC73
S1130CE060937703709378038093790390937A03E6
S1130CF06091FF03709100044091FE0380ED93E046
S1130D0029DC60937B0370937C0380937D03909331
S1130D107E0340910304509104046BE673E08EEE6D
S1130D2093E02EDE80910304909104049093760363
S1130D308093750381E090E0909351038093500376
S1130D4082EE93E10E943210892B09F449C082EEAD
S1130D5093E10E94361080936A03682F89E993E037
S1130D606EDB9093690380936803892BC9F16091CA
S1130D70CA037091CB034091C60388EA93E0A5DCD3
S1130D8060936003709361038093620390936303A1
S1130D906091C8037091C9034091C70389E993E046
S1130DA0D9DB609364037093650380936603909327
S1130DB067034091CC035091CD0364E573E087EB66
S1130DC093E0DEDD8091CC039091CD0390935F039B
S1130DD080935E0381E090E090934F0380934E03F1
S1130DE082E093E00E94F40F209152033091530368
S1130DF0811112C02115310509F4BDC18091500340
S1130E0090915103892B09F4B6C180914E039091BE
S1130E104F03892B09F4AFC1232B49F080914C0374
S1130E2090914D03019690934D0380934C038091D0
S1130E30500390915103892B49F080914C03909178
S1130E404D03019690934D0380934C0380914E0380
S1130E5090914F03892B49F080914C0390914D035D
S1130E60019690934D0380934C036DE173E081E40C
S1130E7093E0A5D480910C03B6DA609308037093D1
S1130E80090380930A0390930B034EE061E473E03B
S1130E90CE010196F1D3FE013196A1E1B3E0CE017A
S1130EA00D9641915191619171914D935D936D9323
S1130EB07D93E817F907A9F72091110330911203E4
S1130EC0409113035091140360911503709116031C
S1130ED080911703909118030E94051220EE3EE2C0
S1130EE045E652E40E94D21329E23CE547EE50E481
S1130EF00E9491116B017C0120E030E0A9010E9465
S1130F00581287FD09C0C0920D03D0920E03E092DF
S1130F100F03F092100310C020E030E044EB53E4E0
S1130F20C701B6010E94921160930D0370930E03E2
S1130F3080930F039093100360914C0370914D03C1
S1130F40072E000C880B990B0E94F21225EE34E058
S1130F5040E050E00E943B118CE237DD8091520367
S1130F6090915303892B61F160918C0370918D03EF
S1130F7045EE54E082E893E00E9476118CE225DD90
S1130F8060918E0370918F038091900390919103EF
S1130F9025EE34E046E050E00E943B118CE215DD82
S1130FA060919203709193038091940390919503BF
S1130FB025EE34E046E050E00E943B118CE205DD72
S1130FC08091500390915103892B91F180915203A8
S1130FD090915303892B61F46091750370917603AA
S1130FE045EE54E08BE693E00E9476118CE2EDDC52
S1130FF060917703709178038091790390917A03DB
S113100025EE34E046E050E00E943B118CE2DDDC4A
S113101060917B0370917C0380917D0390917E03AA
S113102025EE34E046E050E00E943B118CE2CDDC3A
S113103080914E0390914F03892BC1F1809152030B
S113104090915303892B91F4809150039091510313
S1131050892B61F460915E0370915F0345EE54E067
S113106084E593E00E9476118CE2AFDC609160032A
S113107070916103809162039091630325EE34E0E3
S113108046E050E00E943B118CE29FDC60916403D7
S113109070916503809166039091670325EE34E0B7
S11310A046E050E00E943B118CE28FDC60913103FA
S11310B070913203809133039091340325EE34E030
S11310C042E050E00E943B118CE27FDC60913503EA
S11310D070913603809137039091380325EE34E004
S11310E042E050E00E943B118CE26FDC60913903D6
S11310F070913A0380913B0390913C0325EE34E0D8
S113110042E050E00E943B118CE25FDC60910D03F1
S113111070910E0380910F039091100325EE34E03B
S113112040E050E00E943B118CE24FDC60910803E8
S11311307091090380910A0390910B0325EE34E02A
S113114042E050E00E943B118AE03FDC8DE03DDC50
S113115082E093E02FD710924D0310924C0310922B
S113116053031092520310925103109250031092A1
S11311704F0310924E032C960FB6F894DEBF0FBEA9
S1131180CDBFDF91CF91FF90EF90DF90CF90089586
S11311901F920F920FB60F9211240BB60F922F933A
S11311A03F934F935F936F937F938F939F93AF93EB
S11311B0BF93EF93FF936091C6006093E11380E0C7
S11311C094E12CD7FF91EF91BF91AF919F918F91B3
S11311D07F916F915F914F913F912F910F900BBE33
S11311E00F900FBE0F901F9018951F920F920FB67D
S11311F00F9211240BB60F922F933F934F935F934B
S11312006F937F938F939F93AF93BF93EF93FF93CA
S11312106091CE006093E01386EF93E1FFD6FF91D7
S1131220EF91BF91AF919F918F917F916F915F915A
S11312304F913F912F910F900BBE0F900FBE0F90C7
S11312401F9018951F920F920FB60F9211240BB690
S11312500F922F933F934F935F936F937F938F934B
S11312609F93AF93BF93EF93FF936091D6006093E6
S1131270DF138CEE93E1D2D6FF91EF91BF91AF9142
S11312809F918F917F916F915F914F913F912F919A
S11312900F900BBE0F900FBE0F901F9018951F92CA
S11312A00F920FB60F9211240BB60F922F933F9308
S11312B04F935F936F937F938F939F93AF93BF935A
S11312C0EF93FF93609136016093DE1382EE93E116
S11312D0A5D6FF91EF91BF91AF919F918F917F918F
S11312E06F915F914F913F912F910F900BBE0F9093
S11312F00FBE0F901F9018951F920F920FB60F926A
S113130011240BB60F922F933F934F935F936F93D8
S11313107F938F939F93AF93BF93EF93FF9382E059
S113132093E04FD6FF91EF91BF91AF919F918F9131
S11313307F916F915F914F913F912F910F900BBED1
S11313400F900FBE0F901F9018950F931F9308E7EF
S113135014E128E247E350E060E070E081E493E0C8
S113136052D08CE0E1E1F3E0DF011D928A95E9F7C8
S11313701F910F91089508950F931F93CF93DF93B7
S11313808C01EB0188E2FB0111928A95E9F74BE0AD
S113139050E06BED72E0CE010E9457181B8681E08D
S11313A090E0A0E0B0E08C879D87AE87BF87F8010E
S11313B086819781A085B185888B998BAA8BBB8BFD
S11313C083E090E0A0E0B0E08C8B9D8BAE8BBF8B74
S11313D01CA21DA21EA21FA2188E198E1A8E1B8E6D
S11313E01C8E1D8E1E8E1F8E8AE097EDA3E2BCE339
S11313F088A399A3AAA3BBA3DF91CF911F910F91B7
S113140008950C947F150F931F93FC0186EE92E0D0
S113141091838083468357836087718723831583F1
S113142004831F910F9108950F931F93CF93DF931C
S1131430EC01062F142F6B818C819D812DD58C811D
S11314409D81DC01ED91FC910190F081E02D602FF4
S113145019958C819D81DC01ED91FC910190F081C5
S1131460E02D612F19958C819D8196D581E0DF91C6
S1131470CF911F910F910895462FFC0162876DE370
S1131480D3DF6EE170E080E090E00C94FB150F93E5
S11314901F93CF93DF93EC01062F1A8560E0ECDFF6
S11314A069E170E080E090E00E94FB1540E067E0B5
S11314B0CE01BADF002311F040E801C040E06FE341
S11314C0CE01B2DF6AE070E080E090E00E94FB159C
S11314D0612FCE01D1DF64E170E080E090E0DF9124
S11314E0CF911F910F910C94FB151F93CF93DF9312
S11314F0EC01162F6B818C819D81CED48C819D81D2
S1131500DC01ED91FC910190F081E02D612F1995A2
S11315108C819D8141D541E06B818C819D8138D541
S11315208C819D81DC01ED91FC910284F385E02D99
S11315301995DF91CF911F9108951F93CF93DF9356
S1131540EC01162F8C819D8198D460E0CE01CDDF13
S1131550803A61F460E0CE018FDF40E26FE3CE01B8
S113156063DF6EE170E080E090E00DC068EE73E050
S113157080E090E00E94FB1560E0CE01B6DF803A87
S113158049F380E034C00E94FB1560E0CE01ADDF7A
S1131590803A29F06AE070E080E090E0F4CF62E302
S11315A070E080E090E00E94FB1540E06EE3CE0125
S11315B03BDF6AE070E080E090E00E94FB1540E0D1
S11315C067E0CE0131DF40E06FE3CE012DDF6AE05A
S11315D070E080E090E00E94FB15612FCE014CDFAB
S11315E064E170E080E090E00E94FB1581E0DF910F
S11315F0CF911F910895DF92EF92FF920F931F9363
S1131600CF93DF93EC01162FD42EE52EF22E6B81AF
S11316108C819D8141D48C819D81DC01ED91FC9173
S11316200190F081E02D612F19958C819D81B4D4B6
S11316304F2D6B818C819D81ABD40D2D1E2DF80116
S1131640EF0DF11D7F010E151F0569F08C819D8141
S1131650DC01ED91FC910284F385E02D1995F801EC
S113166081938F01F0CF81E0DF91CF911F910F9192
S1131670FF90EF90DF900895BF92CF92DF92EF92A8
S1131680FF920F931F93CF93DF9300D000D0CDB779
S1131690DEB78C01CB01B42E2CE0F80111922A950F
S11316A0E9F7AE014F5F5F4F26E0FA0111922A95E8
S11316B0E9F726E06B2D9FDF69817A81CB80DC809E
S11316C0ED80FE80F4E1BF1681F0FB1528F088E080
S11316D0B816B9F1EEE007C0F8E2BF1691F18EE258
S11316E0B81679F1EAE1BE1259C0072E000C880B36
S11316F0990B78D720E030E040E85DE30E94D213F4
S1131700F8016083718382839383B601DD0C880BB7
S1131710990B68D720E030E040E85DE30E94D213E3
S1131720F8016483758386839783B701FF0C880B64
S1131730990B58D720E030E040E85DE30E94D213D3
S113174028C0072E000C880B990B4CD720E030E002
S113175048EC52E4B1D6F8016083718382839383A9
S1131760B601DD0C880B990B3DD720E030E048EC46
S113177052E4A2D6F8016483758386839783B70104
S1131780FF0C880B990B2ED720E030E048EC52E494
S113179093D6F8016087718782879387C80126965C
S11317A00FB6F894DEBF0FBECDBFDF91CF911F916E
S11317B00F91FF90EF90DF90CF90BF900895EF923C
S11317C0FF920F931F93CF93DF93CDB7DEB72C9780
S11317D00FB6F894DEBF0FBECDBF7C018B0184E24F
S11317E0FB0111928A95E9F784E290E0A0E0B0E071
S11317F0FB0180839183A283B383F7018681978160
S1131800A085B185FB0184839583A683B78383E098
S113181090E0A0E0B0E080879187A287B3870E9420
S1131820CA15F801608B718B828B938B4AE1B701E7
S1131830CE01019621DF89819A81AB81BC81F801B7
S1131840848B958BA68BB78B8D819E81AF81B88558
S1131850808F918FA28FB38F89859A85AB85BC8544
S1131860848F958FA68FB78F81E02C960FB6F8944E
S1131870DEBF0FBECDBFDF91CF911F910F91FF90BF
S1131880EF9008951092771481E08093751410926C
S1131890741461E084E10E94EB1661E085E10E942A
S11318A0EB16E9EBF0E080818E7F808380818D7F71
S11318B0808388E48093B80085E48093BC00089515
S11318C0413208F043C0909177149111FCCF91E01C
S11318D090937714209375142FEF20930A14109289
S11318E04F14240F20934E149093761490917614F1
S11318F0880F892B8093761480917414813061F45D
S113190010927414809176148093BB008091BC0073
S113191083FDF8CF85EC01C085EE8093BC008091F7
S113192077148130E1F380914F14841710F44091BF
S11319304F14A0E5B4E1962FFB018E2F891B841769
S113194018F48D918193F9CF842F089580E0089540
S11319500F93413208F04AC0909177149111FCCF53
S113196032E030937714009375143FEF30930A14E8
S113197010924F1440934E14562FA0E5B4E1FB018E
S11319803E2F351B341718F431913D93F9CF109243
S1131990761430917614880F832B8093761480917B
S11319A07414813061F410927414809176148093CD
S11319B0BB008091BC0083FDF8CF85EC01C085EEAF
S11319C08093BC00222321F0809177148230D1F3DC
S11319D080910A148F3F79F080910A14803241F08B
S11319E080910A14803331F094E005C091E003C083
S11319F092E001C093E0892F0F91089540912C1437
S1131A00262F30E0240F311D21323105DCF42091E2
S1131A1077142430C9F4FC0180E090E0861758F470
S1131A2030912C142191DC01A25DBB4EA30FB11D9A
S1131A302C930196F3CF80912C14680F60932C148F
S1131A4080E0089581E0089582E0089590937114F0
S1131A50809370140895909373148093721408956E
S1131A6085ED8093BC008091BC0084FDFCCF109276
S1131A707714089585EC8093BC0010927714089530
S1131A801F920F920FB60F9211240BB60F922F9341
S1131A903F934F935F936F937F938F939F93AF93F2
S1131AA0BF93EF93FF938091B900887F803609F448
S1131AB09DC070F5883209F45CC090F4803109F45B
S1131AC055C038F4882309F4F3C0883009F44EC0B3
S1131AD0F2C0883109F44DC0803209F45EC0EBC015
S1131AE0803409F469C050F4803309F456C0883353
S1131AF009F0E1C080930A14BDDFDDC0803509F42C
S1131B004FC0883509F45DC0883409F0D4C0D2C010
S1131B10883909F4C3C0A8F4883709F467C038F4D5
S1131B20883609F463C0803709F460C0C4C08838BB
S1131B3009F4B4C0803909F45FC0803809F0BBC02F
S1131B405BC0803B09F482C038F4803A09F466C073
S1131B50883A09F47BC0AFC0803C09F4A3C0883C38
S1131B6009F4A0C0883B09F486C0A5C0809176140E
S1131B7010C090914F1480914E14981770F5E09115
S1131B804F1481E08E0F80934F14F0E0E05BFB4E26
S1131B9080818093BB0085EC82C080930A148AC044
S1131BA0E0914F1481E08E0F80934F148091BB001D
S1131BB0F0E0E05BFB4E808390914F1480914E14D3
S1131BC06AC0E0914F1481E08E0F80934F1480918E
S1131BD0BB00F0E0E05BFB4E8083809175148111C3
S1131BE069C081E08093741484EA5DC083E08093CB
S1131BF0771410920B14CFCF80910B14803208F01D
S1131C004DC0E0910B1481E08E0F80930B148091F2
S1131C10BB00F0E0E45FFB4E8083BDCF2BDF8091FF
S1131C200B14803230F4E0910B14F0E0E45FFB4ECF
S1131C30108260910B1470E0E0917014F0917114B3
S1131C408CE094E1199510920B1435C084E08093D4
S1131C50771410922D1410922C14E0917214F091B8
S1131C607314199580912C14811105C081E080931F
S1131C702C1410922E14E0912D1481E08E0F809379
S1131C802D14F0E0E25DFB4E80818093BB009091C7
S1131C902D1480912C14981708F47DCF85E8809337
S1131CA0BC0009C085EC8093BC001092771403C07B
S1131CB010920A14D5DEFF91EF91BF91AF919F91DD
S1131CC08F917F916F915F914F913F912F910F90E1
S1131CD00BBE0F900FBE0F901F90189580E090E000
S1131CE008958091AC1490E02091AD14821B910969
S1131CF008959091AD148091AC14981750F4E92F85
S1131D00F0E0E255FB4E208130E09F5F9093AD14EC
S1131D1002C02FEF3FEFC9010895E091AD14809107
S1131D20AC14E81730F4F0E0E255FB4E808190E00B
S1131D3008958FEF9FEF08950895CF93DF93EC01FB
S1131D40E0918414F09185143097F1F09091AD14E2
S1131D508091AC149817C0F090E0292F30E026173A
S1131D60370754F4DE01A20FB31F4C91D901A255D9
S1131D70BB4E4C939F5FF1CF1092AD146093AC14A3
S1131D80CB01DF91CF911994DF91CF910895E09128
S1131D908614F0918714309729F010928A141092C7
S1131DA0891419940895CF92DF92EF92FF920F93C2
S1131DB01F93CF93DF937C01CB018A012091881478
S1131DC0222389F0EB016B01C40ED51ECC15DD0571
S1131DD061F06991D701ED91FC910190F081E02DC2
S1131DE0C7011995F3CF642F09DEC801DF91CF91A4
S1131DF01F910F91FF90EF90DF90CF900895CF93B4
S1131E00DF931F92CDB7DEB7698320918814222314
S1131E10D1F020918914203240F021E030E0FC011F
S1131E203383228380E090E014C080918A14E82FE9
S1131E30F0E0E557FB4E998190838F5F80938A147D
S1131E408093891404C061E0CE010196D7DD81E05E
S1131E5090E00F90DF91CF910895FC0113821282DC
S1131E6088EE93E0A0E0B0E084839583A683B783F3
S1131E7084EF92E09183808308951092AD141092C0
S1131E80AC1410928A1410928914FCDC87EC9EE046
S1131E90E2DD8DE99EE0DACD81E0809388146093E1
S1131EA0AB1410928A141092891408950F93062F7C
S1131EB021E0409189146BE874E18091AB1448DD12
S1131EC010928A1410928914109288140F91089514
S1131ED04F925F926F927F92AF92BF92CF92EF92A6
S1131EE0FF920F931F93CF93DF935C01F62ED42FB1
S1131EF028013901EE2011F1CFDFCE2DC43008F0D6
S1131F00C3E0C150C0F028E0C29FC0011124A30166
S1131F10920104C056954795379527958A95D2F72F
S1131F20CA01B901D501ED91FC910190F081E02D38
S1131F30C5011995E6CF60E0C501B8DF4D2FD13258
S1131F4008F040E22C2D6EEA74E18F2DB9DC10927A
S1131F50AD148093AC14DF91CF911F910F91FF903A
S1131F60EF90CF90BF90AF907F906F905F904F9025
S1131F700895CF92EF920F931F93C22EE12C00E0AD
S1131F8010E09801A5DF1F910F91EF90CF90089575
S1131F9021E0EFCF21E0EDCF61E088CF88E794E145
S1131FA05CCFFC0181E0818310827583648313829A
S1131FB012820895FC0181E08183108213821282CF
S1131FC00895FC018181882371F0828193812481A9
S1131FD035818217930724F40196938382830895AD
S1131FE081E0808311820895FC0180810895DC01E1
S1131FF0C90111961C921E9213961C921E9212975E
S113200015961C921E92149719967C936E931897AA
S113201017967C936E931697FA011994FC018081AC
S11320209181883E9340ECF4A085B1856C938081C6
S11320309181019691838083228133812F5F3F4F69
S11320403383228380859185283E334024F401968E
S1132050918780870895875E934091878087138254
S113206012820895FC01808191810895FC012081F0
S1132070318121153105D9F0A681B7818C91215088
S1132080310931832083248135812F5F3F4F35838C
S11320902483283E334024F41196B783A6830895FD
S11320A0A75EB340B783A68315821482089580E0A7
S11320B008952F923F924F925F926F927F928F92E8
S11320C09F92AF92BF92CF92DF92EF92FF920F93C3
S11320D01F93CF93DF9300D01F92CDB7DEB72B01B0
S11320E03C016A017901180120E030E0A901E0D146
S11320F087FF11C08DE2F6018083F7018081918111
S113210001969183808377FA709477F8709496019E
S11321102F5F3F4F6901C301B20136D280E090E0E6
S11321205FD24B015C019B01AC01C301B201F9D048
S11321302B013C0181E090E09C838B83EB81FC814B
S1132140BF01FF0F880B990B4DD29B01AC0160E0DE
S113215070E080E291E489D39B01AC01C501B40134
S113216016D318163CF42B813C812F5F3F4F3C83E0
S11321702B83E4CFDA82C9820B811C8101501109BF
S1132180B801012E000C880B990B2CD29B01AC01D9
S113219060E070E080E291E468D39B01AC01C5018A
S11321A0B4018AD1F1D1CB016AE070E043D6805DFD
S11321B0E981FA818193FA83E983F701808191812E
S11321C001969183808301151105C1F62B813C8111
S11321D02C0D3D1D12141304BCF58EE2F9018193FC
S11321E0FA83E983F7018081918101969183808349
S11321F001E010E08AE0C82ED12CB801012E000CB9
S1132200880B990BEFD19B01AC0160E070E080E298
S113221091E42BD39B01AC01C301B201C3D2B4D16D
S1132220CB01B60107D6805DE981FA818193FA83F7
S1132230E983F701808191810196918380830F5F07
S11322401F4F20163106CCF60F900F900F900F9071
S1132250DF91CF911F910F91FF90EF90DF90CF907E
S1132260BF90AF909F908F907F906F905F904F90B2
S11322703F902F900895EF92FF920F931F93CF9367
S1132280DF93CDB7DEB72C970FB6F894DEBF0FBE41
S1132290CDBF79011C861B868A019E01255F3F4FB5
S11322A0AE014F5F5F4F05DF8E010F5F1F4FF801D7
S11322B08B859C8521E030E02C0F3D1F820F931FFE
S11322C00817190730F40F5F1F4F8081F701199524
S11322D0EECF2C960FB6F894DEBF0FBECDBFDF91C4
S11322E0CF911F910F91FF90EF900895EF92FF927D
S11322F00F931F93CF93DF937A01EC018C01060FA8
S1132300171FFE01C017D10728F421968081F70119
S11323101995F7CFDF91CF911F910F91FF90EF9017
S113232008955058BB27AA270ED0F7C1E8D130F042
S1132330EDD120F031F49F3F11F41EF4B8C10EF436
S1132340E095E7FBAEC1E92FF9D180F3BA17620734
S113235073078407950718F071F49EF511C20EF403
S1132360E0950B2EBA2FA02D0B01B90190010C01A1
S1132370CA01A0011124FF27591B99F0593F50F4B9
S1132380503E68F11A16F040A22F232F342F442711
S1132390585FF3CF469537952795A795F040539509
S11323A0C9F77EF41F16BA0B620B730B840BBAF0D9
S11323B09150A1F0FF0FBB1F661F771F881FC2F744
S11323C00EC0BA0F621F731F841F48F48795779558
S11323D06795B795F7959E3F08F0B3CF9395880F0F
S11323E008F09927EE0F97958795089588D158F0AE
S11323F080E891E009F49EEF89D128F040E851E0AB
S113240059F45EEF09C053C1BBC1E92FE07896D1FE
S113241068F3092E052AC1F3261737074807590719
S113242038F00E2E07F8E02569F0E025E0640AC0D4
S1132430EF6307F8009407FADB01B9019D01DC01A1
S1132440CA01AD01EF9347D068D10AD05F915523FB
S113245031F02BED3FE049E450FD49EC63CF0895A2
S1132460DF93DD27B92FBF7740E85FE31616170621
S113247048075B0710F4D92F8ED19F938F937F93D6
S11324806F933FD2E4EFF0E015D147D12F913F9104
S11324904F915F9193D1DD2349F09058A2EA2AED40
S11324A03FE049EC5FE3D0785D274DDFDF9135C134
S11324B0D4D008F481E008950CD02FC127D140F086
S11324C01ED130F021F45F3F19F0EBC0511159C116
S11324D0EEC034D198F39923C9F35523B1F3951B76
S11324E0550BBB27AA2762177307840738F09F5F31
S11324F05F4F220F331F441FAA1FA9F333D00E2EA0
S11325003AF0E0E830D091505040E695001CCAF70C
S113251029D0FE2F27D0660F771F881FBB1F2617D1
S113252037074807AB07B0E809F0BB0B802DBF01A4
S1132530FF2793585F4F2AF09E3F510568F0B1C0C2
S113254020C15F3FECF3983EDCF386957795679561
S1132550B795F7959F5FC9F7880F911D9695879555
S113256097F90895E1E0660F771F881FBB1F621774
S113257073078407BA0720F0621B730B840BBA0B32
S1132580EE1F88F7E0950895E1D088F09F5790F00A
S1132590B92F9927B751A0F0D1F0660F771F881F84
S11325A0991F1AF0BA95C9F712C0B13081F0E8D07A
S11325B0B1E00895E5C0672F782F8827B85F39F018
S11325C0B93FCCF3869577956795B395D9F73EF4E3
S11325D090958095709561957F4F8F4F9F4F08958B
S11325E0E89409C097FB3EF49095809570956195A9
S11325F07F4F8F4F9F4F9923A9F0F92F96E9BB275F
S11326009395F695879577956795B795F111F8CFDA
S1132610FAF4BB0F11F460FF1BC06F5F7F4F8F4F45
S11326209F4F16C0882311F096E911C0772321F03B
S11326309EE8872F762F05C0662371F096E8862FD3
S113264070E060E02AF09A95660F771F881FDAF72A
S1132650880F9695879597F90895990F0008550F57
S1132660AA0BE0E8FEEF16161706E807F907C0F014
S113267012161306E407F50798F0621B730B840B1C
S1132680950B39F40A2661F0232B242B252B21F4F6
S113269008950A2609F4A140A6958FEF811D811D96
S11326A0089597F99F6780E870E060E008959FEFD0
S11326B080EC0895DF93CF931F930F93FF92EF92D3
S11326C0DF927B018C01689405C0DA2EEF0176D08D
S11326D0FE01E894A5912591359145915591AEF36C
S11326E0EF0131DEFE019701A801DA9479F7DF905A
S11326F0EF90FF900F911F91CF91DF9108950024E7
S11327000A941616170618060906089500240A9452
S113271012161306140605060895092E0394000CD8
S113272011F4882352F0BB0F40F4BF2B11F460FF67
S113273004C06F5F7F4F8F4F9F4F089557FD905890
S1132740440F551F59F05F3F71F04795880F97FB71
S1132750991F61F09F3F79F087950895121613062B
S11327601406551FF2CF4695F1DF08C0161617065A
S11327701806991FF1CF869571056105089408958F
S1132780E894BB2766277727CB0197F9089565DF7F
S113279008F48FEF08959B01AC0160E070E080E8DD
S11327A09FE38ACE0BD0B9CFAADF28F0AFDF18F0B1
S11327B0952309F076CF7BCF1124E3CFBFDFA0F3BD
S11327C0959FD1F3950F50E0551F629FF001729FC2
S11327D0BB27F00DB11D639FAA27F00DB11DAA1FE1
S11327E0649F6627B00DA11D661F829F2227B00D2E
S11327F0A11D621F739FB00DA11D621F839FA00DB9
S1132800611D221F749F3327A00D611D231F849F08
S1132810600D211D822F762F6A2F11249F5750405F
S11328208AF0E1F088234AF0EE0FFF1FBB1F661FFA
S1132830771F881F91505040A9F79E3F510570F0B3
S113284030CF9FCF5F3FECF3983EDCF386957795CE
S11328506795B795F795E7959F5FC1F7FE2B880FAE
S1132860911D9695879597F90895FA01EE0FFF1F2C
S113287030962105310599F16115710561F48038AF
S1132880BFE39B0749F168949038810561F0803873
S1132890BFEF9B0741F0992342F5FF3FE105310566
S11328A0210511F1E8940894E795D901AA2329F4A4
S11328B0AB2FBE2FF85FD0F310C0FF5F70F4A69566
S11328C0E0F7F73950F019F0FF3A38F49F779F9307
S11328D00CD00F9007FC905808953EF0E8CE60E0CD
S11328E070E080E89FE308954FE79F775F934F93ED
S11328F03F932F9375D02F913F914F915F9152DF6A
S113290008C09B01AC014ECF19F40EF0CACE38CFEB
S1132910CECE1CDFC8F39638C0F707F80F92E894C0
S11329202BE33AEA48EB5FE74BDF0F920F920F92EB
S11329304DB75EB70F9294D0E1E2F1E0BBDE4F9168
S11329405F91EF91FF91E595EE1FFF1F49F0FE5750
S1132950E0684427EE0F441FFA95E1F74195550BC3
S113296006D00F9007FE17CF08959BCEACC0EEDEC5
S1132970E8F39923D9F3940F511DBBF391505040C0
S113298094F059F0882332F0660F771F881F915016
S11329905040C1F79E3F510544F7880F911D96950D
S11329A0879597F908955F3FACF0983E9CF0BB275C
S11329B0869577956795B79508F4B1609395C1F7B7
S11329C0BB0F58F711F460FFE8CF6F5F7F4F8F4F55
S11329D09F4FE3CFD6CE0EF076C069CE689461CE19
S11329E0B5DEC8F39923D1F3C6F3DF93CF931F93D6
S11329F00F93FF92C92FDD2788232AF02197660FB2
S1132A00771F881FDAF720E030E040E85FEB9FE3B0
S1132A10883920F0803E30F021968F7783DCE9E41A
S1132A20F1E003C07FDCE6E7F1E044DE8B01BE01A8
S1132A30EC01FB2E6F5771097595771F880B990B65
S1132A40D1DD28E132E741E35FE3B8DEAF2D980141
S1132A50AE01FF900F911F91CF91DF9174DC5DCE99
S1132A60FA01DC01AA0FBB1F9B01AC01BF5728F47C
S1132A7022273327442750781FC0B75188F4AB2F3F
S1132A800024469537952795011CA395D2F3002081
S1132A9069F0220F331F441FB395DAF30DD041CCF4
S1132AA061307105A0E88A07B94630F49B01AC0196
S1132AB06627772788279078309621F02083318302
S1132AC04283538308959F3F31F0915020F48795BA
S1132AD077956795B795880F911D9695879597F982
S1132AE008950895C1D0FDDF0E948605C0E0D0E0BE
S1132AF00E94F2052097E1F30E940000F9CF4EC234
S1132B001F920F920FB60F9211242F933F938F931E
S1132B109F93AF93BF938091CF149091D014A091C1
S1132B20D114B091D2143091CE1423E0230F2D3759
S1132B3020F40196A11DB11D05C026E8230F0296BD
S1132B40A11DB11D2093CE148093CF149093D01463
S1132B50A093D114B093D2148091D3149091D4142F
S1132B60A091D514B091D6140196A11DB11D8093E6
S1132B70D3149093D414A093D514B093D614BF91C6
S1132B80AF919F918F913F912F910F900FBE0F9016
S1132B901F9018952FB7F8946091CF147091D014AA
S1132BA08091D1149091D2142FBF08953FB7F89417
S1132BB08091D3149091D414A091D514B091D614CB
S1132BC026B5A89B05C02F3F19F00196A11DB11D84
S1132BD03FBFBA2FA92F982F8827820F911DA11DBF
S1132BE0B11DBC01CD0142E0660F771F881F991FFC
S1132BF04A95D1F708958F929F92AF92BF92CF9248
S1132C00DF92EF92FF926B017C01D0DF4B015C01FC
S1132C10C114D104E104F104F1F00BD1C7DFDC01EC
S1132C20CB0188199909AA09BB09883E9340A105DB
S1132C30B10570F321E0C21AD108E108F10888EE69
S1132C40880E83E0981EA11CB11CC114D104E104B8
S1132C50F10421F7DDCFFF90EF90DF90CF90BF908C
S1132C60AF909F908F900895789484B5826084BDCE
S1132C7084B5816084BD85B5826085BD85B581607C
S1132C8085BDEEE6F0E0808181608083E1E8F0E0DC
S1132C901082808182608083808181608083E0E80B
S1132CA0F0E0808181608083E1EBF0E080818460EA
S1132CB08083E0EBF0E0808181608083E1E9F0E0F3
S1132CC0808182608083808181608083E0E9F0E09C
S1132CD0808181608083E1EAF0E08081826080838A
S1132CE0808181608083E0EAF0E08081816080837C
S1132CF0E1E2F1E080818260808380818160808371
S1132D00E0E2F1E0808181608083EAE7F0E08081A5
S1132D1084608083808182608083808181608083FD
S1132D208081806880831092C100089590E0FC0146
S1132D303197E231F10508F04DC08827EE52FF4F7C
S1132D408F4F8CC0809180008F7703C0809180006A
S1132D508F7D80938000089580918000877FF9CFD4
S1132D6084B58F7702C084B58F7D84BD089580912A
S1132D70B0008F7703C08091B0008F7D8093B00046
S1132D800895809190008F7707C0809190008F7D87
S1132D9003C080919000877F809390000895809174
S1132DA0A0008F7707C08091A0008F7D03C0809121
S1132DB0A000877F8093A0000895809120018F77E1
S1132DC007C0809120018F7D03C080912001877FFF
S1132DD08093200108951F93CF93DF93282F30E031
S1132DE0F901E853FE4F8491F901E25FFD4FD4915C
S1132DF0F901EC5AFD4FC491CC23B9F0162F81117F
S1132E0095DFEC2FF0E0EE0FFF1FE656FD4FA59186
S1132E10B4919FB7F894111104C08C91D095D82324
S1132E2002C0EC91DE2BDC939FBFDF91CF911F9109
S1132E3008950895AA1BBB1B51E107C0AA1FBB1F1D
S1132E40A617B70710F0A61BB70B881F991F5A9532
S1132E50A9F780959095BC01CD010895EE0FFF1F51
S1132E60881F8BBF0790F691E02D19940F931F9341
S1132E70CF93DF938230910510F482E090E0E091EB
S1132E80D914F091DA1420E030E0A0E0B0E03097FB
S1132E9019F1408151810281138148175907C8F003
S1132EA08417950769F4109731F012960C931297D2
S1132EB013961C9327C00093D9141093DA1422C0DC
S1132EC02115310519F04217530718F49A01BD0171
S1132ED0EF01DF01F801DBCF21153105F9F0281BE3
S1132EE0390B2430310580F48A819B816115710589
S1132EF021F0FB019383828304C09093DA148093BE
S1132F00D914FE01329644C0FE01E20FF31F8193EF
S1132F10919322503109398328833AC02091D714E0
S1132F203091D814232B41F42091020230910302F2
S1132F303093D8142093D7142091000230910102C9
S1132F402115310541F42DB73EB74091040250914B
S1132F500502241B350BE091D714F091D814E21725
S1132F60F307A0F42E1B3F0B2817390778F0AC01A8
S1132F704E5F5F4F2417350748F04E0F5F1F509385
S1132F80D8144093D7148193919302C0E0E0F0E009
S1132F90CF01DF91CF911F910F910895CF93DF93CC
S1132FA0009709F481C0FC01329713821282A09128
S1132FB0D914B091DA14109781F420813181820FF1
S1132FC0931F2091D7143091D8142817390751F53D
S1132FD0F093D814E093D71467C0ED0120E030E0FB
S1132FE0CE17DF0740F44A815B819E0141155105EC
S1132FF0F1F0EA01F5CFD383C28340815181840F7C
S1133000951FC817D90759F488819981840F951F92
S11330100296918380838A819B8193838283211585
S1133020310529F4F093DA14E093D9143DC0E90191
S1133030FB83EA8349915991C40FD51FEC17FD070F
S113304061F480819181840F951F0296E90199832F
S11330508883828193819B838A83E0E0F0E01296E7
S11330608D919C911397009719F0FD01DC01F7CF26
S11330708D919C9111979D012E5F3F4F820F931F5D
S11330802091D7143091D8142817390769F4309750
S113309029F41092DA141092D91402C01382128205
S11330A0B093D814A093D714DF91CF910895FB0166
S11330B0DC014150504048F001900D920020C9F7C6
S11330C001C01D9241505040E0F70895F894FFCF9D
S11330D00000DB142000B56206010800F0050000C2
S11330E0000000010547B56206010200F005FE1666
S11330F0B56206010800F001000000000001012B88
S1133100B56206010200F001FA12B5620601080078
S1133110F0000000000000010024B5620601020076
S1133120F000F911B56206010800F0030000000088
S113313000010339B56206010200F003FC14B56214
S113314006010800F0020000000000010232B5622E
S113315006010200F002FB132445494741512C5655
S113316054472A33320D0AB56206000100010822D1
S1133170B5620600140001000000D008000000C27F
S113318001000700030000000000C07EB5620600D5
S11331900100010822B5620608060064000100016E
S11331A0007A12B562060800000E30424E4F3035E8
S11331B0350000000000BB09010ACC04DF0BBC0988
S11331C000000000FF0ED30E6E0E9C0E710E790EE1
S10531D08D0E5E
S9030000FC
